{
  "contractName": "Account",
  "abi": [
    {
      "inputs": [],
      "stateMutability": "nonpayable",
      "type": "constructor"
    },
    {
      "inputs": [],
      "name": "getPatientInfo",
      "outputs": [
        {
          "internalType": "string",
          "name": "",
          "type": "string"
        },
        {
          "internalType": "uint256",
          "name": "",
          "type": "uint256"
        },
        {
          "internalType": "address[]",
          "name": "",
          "type": "address[]"
        },
        {
          "internalType": "string[]",
          "name": "",
          "type": "string[]"
        }
      ],
      "stateMutability": "view",
      "type": "function"
    },
    {
      "inputs": [
        {
          "internalType": "string",
          "name": "_name",
          "type": "string"
        },
        {
          "internalType": "uint256",
          "name": "_age",
          "type": "uint256"
        }
      ],
      "name": "editPatientInfo",
      "outputs": [],
      "stateMutability": "nonpayable",
      "type": "function"
    },
    {
      "inputs": [],
      "name": "getDoctorInfo",
      "outputs": [
        {
          "internalType": "string",
          "name": "",
          "type": "string"
        },
        {
          "internalType": "uint256",
          "name": "",
          "type": "uint256"
        },
        {
          "internalType": "address[]",
          "name": "",
          "type": "address[]"
        },
        {
          "internalType": "string",
          "name": "",
          "type": "string"
        }
      ],
      "stateMutability": "view",
      "type": "function"
    },
    {
      "inputs": [
        {
          "internalType": "string",
          "name": "_name",
          "type": "string"
        },
        {
          "internalType": "uint256",
          "name": "_age",
          "type": "uint256"
        },
        {
          "internalType": "string",
          "name": "_description",
          "type": "string"
        }
      ],
      "name": "editDoctorInfo",
      "outputs": [],
      "stateMutability": "nonpayable",
      "type": "function"
    },
    {
      "inputs": [
        {
          "internalType": "string",
          "name": "_hash",
          "type": "string"
        },
        {
          "internalType": "string",
          "name": "_description",
          "type": "string"
        }
      ],
      "name": "add_records",
      "outputs": [],
      "stateMutability": "nonpayable",
      "type": "function"
    },
    {
      "inputs": [],
      "name": "getDoctors",
      "outputs": [
        {
          "internalType": "string[]",
          "name": "",
          "type": "string[]"
        },
        {
          "internalType": "uint256[]",
          "name": "",
          "type": "uint256[]"
        },
        {
          "internalType": "string[]",
          "name": "",
          "type": "string[]"
        },
        {
          "internalType": "address[]",
          "name": "",
          "type": "address[]"
        }
      ],
      "stateMutability": "view",
      "type": "function"
    },
    {
      "inputs": [],
      "name": "getRecords",
      "outputs": [
        {
          "internalType": "string[]",
          "name": "",
          "type": "string[]"
        },
        {
          "internalType": "string[]",
          "name": "",
          "type": "string[]"
        }
      ],
      "stateMutability": "view",
      "type": "function"
    }
  ],
  "bytecode": "0x60806040523480156200001157600080fd5b5062000035604051806020016040528060008152506000806200005e60201b60201c565b62000058604051806020016040528060008152506000806200015360201b60201c565b62000781565b6200006862000242565b8381600001819052508281602001818152505081816040019015159081151581525050806000803373ffffffffffffffffffffffffffffffffffffffff1673ffffffffffffffffffffffffffffffffffffffff1681526020019081526020016000206000820151816000019081620000e191906200069a565b506020820151816001015560408201518160020160006101000a81548160ff02191690831515021790555060608201518160030190805190602001906200012a92919062000273565b5060808201518160040190805190602001906200014992919062000302565b5090505050505050565b6200015d62000362565b838160000181905250828160200181815250508181604001901515908115158152505080600160003373ffffffffffffffffffffffffffffffffffffffff1673ffffffffffffffffffffffffffffffffffffffff1681526020019081526020016000206000820151816000019081620001d791906200069a565b506020820151816001015560408201518160020160006101000a81548160ff02191690831515021790555060608201518160030190816200021991906200069a565b5060808201518160040190805190602001906200023892919062000273565b5090505050505050565b6040518060a00160405280606081526020016000815260200160001515815260200160608152602001606081525090565b828054828255906000526020600020908101928215620002ef579160200282015b82811115620002ee5782518260006101000a81548173ffffffffffffffffffffffffffffffffffffffff021916908373ffffffffffffffffffffffffffffffffffffffff1602179055509160200191906001019062000294565b5b509050620002fe919062000393565b5090565b8280548282559060005260206000209081019282156200034f579160200282015b828111156200034e5782518290816200033d91906200069a565b509160200191906001019062000323565b5b5090506200035e9190620003b2565b5090565b6040518060a00160405280606081526020016000815260200160001515815260200160608152602001606081525090565b5b80821115620003ae57600081600090555060010162000394565b5090565b5b80821115620003d65760008181620003cc9190620003da565b50600101620003b3565b5090565b508054620003e89062000489565b6000825580601f10620003fc57506200041d565b601f0160209004906000526020600020908101906200041c919062000393565b5b50565b600081519050919050565b7f4e487b7100000000000000000000000000000000000000000000000000000000600052604160045260246000fd5b7f4e487b7100000000000000000000000000000000000000000000000000000000600052602260045260246000fd5b60006002820490506001821680620004a257607f821691505b602082108103620004b857620004b76200045a565b5b50919050565b60008190508160005260206000209050919050565b60006020601f8301049050919050565b600082821b905092915050565b600060088302620005227fffffffffffffffffffffffffffffffffffffffffffffffffffffffffffffffff82620004e3565b6200052e8683620004e3565b95508019841693508086168417925050509392505050565b6000819050919050565b6000819050919050565b60006200057b620005756200056f8462000546565b62000550565b62000546565b9050919050565b6000819050919050565b62000597836200055a565b620005af620005a68262000582565b848454620004f0565b825550505050565b600090565b620005c6620005b7565b620005d38184846200058c565b505050565b5b81811015620005fb57620005ef600082620005bc565b600181019050620005d9565b5050565b601f8211156200064a576200061481620004be565b6200061f84620004d3565b810160208510156200062f578190505b620006476200063e85620004d3565b830182620005d8565b50505b505050565b600082821c905092915050565b60006200066f600019846008026200064f565b1980831691505092915050565b60006200068a83836200065c565b9150826002028217905092915050565b620006a58262000420565b67ffffffffffffffff811115620006c157620006c06200042b565b5b620006cd825462000489565b620006da828285620005ff565b600060209050601f831160018114620007125760008415620006fd578287015190505b6200070985826200067c565b86555062000779565b601f1984166200072286620004be565b60005b828110156200074c5784890151825560018201915060208501945060208101905062000725565b868310156200076c578489015162000768601f8916826200065c565b8355505b6001600288020188555050505b505050505050565b611f8380620007916000396000f3fe608060405234801561001057600080fd5b506004361061007d5760003560e01c8063b13d5d941161005b578063b13d5d94146100de578063b380f5c6146100ff578063d3c3dfcd14610120578063e4a314501461013c5761007d565b806320534a7c14610082578063326df6641461009e5780638eff3c29146100bf575b600080fd5b61009c600480360381019061009791906114e9565b610158565b005b6100a6610251565b6040516100b694939291906117cf565b60405180910390f35b6100c7610558565b6040516100d5929190611829565b60405180910390f35b6100e6610858565b6040516100f6949392919061191e565b60405180910390f35b610107610d41565b604051610117949392919061197f565b60405180910390f35b61013a600480360381019061013591906119d9565b611005565b005b61015660048036038101906101519190611a64565b6111b4565b005b6000339050826000808373ffffffffffffffffffffffffffffffffffffffff1673ffffffffffffffffffffffffffffffffffffffff16815260200190815260200160002060000190816101ab9190611ce8565b50816000808373ffffffffffffffffffffffffffffffffffffffff1673ffffffffffffffffffffffffffffffffffffffff1681526020019081526020016000206001018190555060016000808373ffffffffffffffffffffffffffffffffffffffff1673ffffffffffffffffffffffffffffffffffffffff16815260200190815260200160002060020160006101000a81548160ff021916908315150217905550505050565b6060600060608060003390506000808273ffffffffffffffffffffffffffffffffffffffff1673ffffffffffffffffffffffffffffffffffffffff1681526020019081526020016000206000016000808373ffffffffffffffffffffffffffffffffffffffff1673ffffffffffffffffffffffffffffffffffffffff168152602001908152602001600020600101546000808473ffffffffffffffffffffffffffffffffffffffff1673ffffffffffffffffffffffffffffffffffffffff1681526020019081526020016000206003016000808573ffffffffffffffffffffffffffffffffffffffff1673ffffffffffffffffffffffffffffffffffffffff16815260200190815260200160002060040183805461036e90611b0b565b80601f016020809104026020016040519081016040528092919081815260200182805461039a90611b0b565b80156103e75780601f106103bc576101008083540402835291602001916103e7565b820191906000526020600020905b8154815290600101906020018083116103ca57829003601f168201915b505050505093508180548060200260200160405190810160405280929190818152602001828054801561046f57602002820191906000526020600020905b8160009054906101000a900473ffffffffffffffffffffffffffffffffffffffff1673ffffffffffffffffffffffffffffffffffffffff1681526020019060010190808311610425575b5050505050915080805480602002602001604051908101604052809291908181526020016000905b828210156105435783829060005260206000200180546104b690611b0b565b80601f01602080910402602001604051908101604052809291908181526020018280546104e290611b0b565b801561052f5780601f106105045761010080835404028352916020019161052f565b820191906000526020600020905b81548152906001019060200180831161051257829003601f168201915b505050505081526020019060010190610497565b50505050905094509450945094505090919293565b60608060008060003373ffffffffffffffffffffffffffffffffffffffff1673ffffffffffffffffffffffffffffffffffffffff16815260200190815260200160002060040180549050905060008167ffffffffffffffff8111156105c0576105bf611388565b5b6040519080825280602002602001820160405280156105f357816020015b60608152602001906001900390816105de5790505b50905060005b828110156107385760026000803373ffffffffffffffffffffffffffffffffffffffff1673ffffffffffffffffffffffffffffffffffffffff168152602001908152602001600020600401828154811061065657610655611dba565b5b9060005260206000200160405161066d9190611e77565b9081526020016040518091039020600101805461068990611b0b565b80601f01602080910402602001604051908101604052809291908181526020018280546106b590611b0b565b80156107025780601f106106d757610100808354040283529160200191610702565b820191906000526020600020905b8154815290600101906020018083116106e557829003601f168201915b505050505082828151811061071a57610719611dba565b5b6020026020010181905250808061073090611ebd565b9150506105f9565b506000803373ffffffffffffffffffffffffffffffffffffffff1673ffffffffffffffffffffffffffffffffffffffff1681526020019081526020016000206004018181805480602002602001604051908101604052809291908181526020016000905b828210156108485783829060005260206000200180546107bb90611b0b565b80601f01602080910402602001604051908101604052809291908181526020018280546107e790611b0b565b80156108345780601f1061080957610100808354040283529160200191610834565b820191906000526020600020905b81548152906001019060200180831161081757829003601f168201915b50505050508152602001906001019061079c565b5050505091509350935050509091565b6060806060806000600380549050905060008167ffffffffffffffff81111561088457610883611388565b5b6040519080825280602002602001820160405280156108b757816020015b60608152602001906001900390816108a25790505b50905060008267ffffffffffffffff8111156108d6576108d5611388565b5b6040519080825280602002602001820160405280156109045781602001602082028036833780820191505090505b50905060008367ffffffffffffffff81111561092357610922611388565b5b60405190808252806020026020018201604052801561095657816020015b60608152602001906001900390816109415790505b50905060008467ffffffffffffffff81111561097557610974611388565b5b6040519080825280602002602001820160405280156109a35781602001602082028036833780820191505090505b50905060005b85811015610d2957600060016000600384815481106109cb576109ca611dba565b5b9060005260206000200160009054906101000a900473ffffffffffffffffffffffffffffffffffffffff1673ffffffffffffffffffffffffffffffffffffffff1673ffffffffffffffffffffffffffffffffffffffff1681526020019081526020016000206040518060a0016040529081600082018054610a4b90611b0b565b80601f0160208091040260200160405190810160405280929190818152602001828054610a7790611b0b565b8015610ac45780601f10610a9957610100808354040283529160200191610ac4565b820191906000526020600020905b815481529060010190602001808311610aa757829003601f168201915b50505050508152602001600182015481526020016002820160009054906101000a900460ff16151515158152602001600382018054610b0290611b0b565b80601f0160208091040260200160405190810160405280929190818152602001828054610b2e90611b0b565b8015610b7b5780601f10610b5057610100808354040283529160200191610b7b565b820191906000526020600020905b815481529060010190602001808311610b5e57829003601f168201915b5050505050815260200160048201805480602002602001604051908101604052809291908181526020018280548015610c0957602002820191906000526020600020905b8160009054906101000a900473ffffffffffffffffffffffffffffffffffffffff1673ffffffffffffffffffffffffffffffffffffffff1681526020019060010190808311610bbf575b5050505050815250509050806040015115610d15578060000151868381518110610c3657610c35611dba565b5b60200260200101819052508060200151858381518110610c5957610c58611dba565b5b6020026020010181815250508060600151848381518110610c7d57610c7c611dba565b5b602002602001018190525060038281548110610c9c57610c9b611dba565b5b9060005260206000200160009054906101000a900473ffffffffffffffffffffffffffffffffffffffff16838381518110610cda57610cd9611dba565b5b602002602001019073ffffffffffffffffffffffffffffffffffffffff16908173ffffffffffffffffffffffffffffffffffffffff16815250505b508080610d2190611ebd565b9150506109a9565b50838383839850985098509850505050505090919293565b606060006060806000339050600160008273ffffffffffffffffffffffffffffffffffffffff1673ffffffffffffffffffffffffffffffffffffffff168152602001908152602001600020600001600160008373ffffffffffffffffffffffffffffffffffffffff1673ffffffffffffffffffffffffffffffffffffffff16815260200190815260200160002060010154600160008473ffffffffffffffffffffffffffffffffffffffff1673ffffffffffffffffffffffffffffffffffffffff168152602001908152602001600020600401600160008573ffffffffffffffffffffffffffffffffffffffff1673ffffffffffffffffffffffffffffffffffffffff168152602001908152602001600020600301838054610e6290611b0b565b80601f0160208091040260200160405190810160405280929190818152602001828054610e8e90611b0b565b8015610edb5780601f10610eb057610100808354040283529160200191610edb565b820191906000526020600020905b815481529060010190602001808311610ebe57829003601f168201915b5050505050935081805480602002602001604051908101604052809291908181526020018280548015610f6357602002820191906000526020600020905b8160009054906101000a900473ffffffffffffffffffffffffffffffffffffffff1673ffffffffffffffffffffffffffffffffffffffff1681526020019060010190808311610f19575b50505050509150808054610f7690611b0b565b80601f0160208091040260200160405190810160405280929190818152602001828054610fa290611b0b565b8015610fef5780601f10610fc457610100808354040283529160200191610fef565b820191906000526020600020905b815481529060010190602001808311610fd257829003601f168201915b5050505050905094509450945094505090919293565b600033905083600160008373ffffffffffffffffffffffffffffffffffffffff1673ffffffffffffffffffffffffffffffffffffffff16815260200190815260200160002060000190816110599190611ce8565b5082600160008373ffffffffffffffffffffffffffffffffffffffff1673ffffffffffffffffffffffffffffffffffffffff1681526020019081526020016000206001018190555060018060008373ffffffffffffffffffffffffffffffffffffffff1673ffffffffffffffffffffffffffffffffffffffff16815260200190815260200160002060020160006101000a81548160ff02191690831515021790555081600160008373ffffffffffffffffffffffffffffffffffffffff1673ffffffffffffffffffffffffffffffffffffffff168152602001908152602001600020600301908161114a9190611ce8565b506003819080600181540180825580915050600190039060005260206000200160009091909190916101000a81548173ffffffffffffffffffffffffffffffffffffffff021916908373ffffffffffffffffffffffffffffffffffffffff16021790555050505050565b60003390506111c1611322565b83816000018190525082816020018190525081816040019073ffffffffffffffffffffffffffffffffffffffff16908173ffffffffffffffffffffffffffffffffffffffff168152505080600282600001516040516112209190611f36565b908152602001604051809103902060008201518160000190816112439190611ce8565b5060208201518160010190816112599190611ce8565b5060408201518160020160006101000a81548173ffffffffffffffffffffffffffffffffffffffff021916908373ffffffffffffffffffffffffffffffffffffffff1602179055509050506000808373ffffffffffffffffffffffffffffffffffffffff1673ffffffffffffffffffffffffffffffffffffffff168152602001908152602001600020600401816000015190806001815401808255809150506001900390600052602060002001600090919091909150908161131b9190611ce8565b5050505050565b60405180606001604052806060815260200160608152602001600073ffffffffffffffffffffffffffffffffffffffff1681525090565b6000604051905090565b600080fd5b600080fd5b600080fd5b600080fd5b6000601f19601f8301169050919050565b7f4e487b7100000000000000000000000000000000000000000000000000000000600052604160045260246000fd5b6113c082611377565b810181811067ffffffffffffffff821117156113df576113de611388565b5b80604052505050565b60006113f2611359565b90506113fe82826113b7565b919050565b600067ffffffffffffffff82111561141e5761141d611388565b5b61142782611377565b9050602081019050919050565b82818337600083830152505050565b600061145661145184611403565b6113e8565b90508281526020810184848401111561147257611471611372565b5b61147d848285611434565b509392505050565b600082601f83011261149a5761149961136d565b5b81356114aa848260208601611443565b91505092915050565b6000819050919050565b6114c6816114b3565b81146114d157600080fd5b50565b6000813590506114e3816114bd565b92915050565b60008060408385031215611500576114ff611363565b5b600083013567ffffffffffffffff81111561151e5761151d611368565b5b61152a85828601611485565b925050602061153b858286016114d4565b9150509250929050565b600081519050919050565b600082825260208201905092915050565b60005b8381101561157f578082015181840152602081019050611564565b60008484015250505050565b600061159682611545565b6115a08185611550565b93506115b0818560208601611561565b6115b981611377565b840191505092915050565b6115cd816114b3565b82525050565b600081519050919050565b600082825260208201905092915050565b6000819050602082019050919050565b600073ffffffffffffffffffffffffffffffffffffffff82169050919050565b600061162a826115ff565b9050919050565b61163a8161161f565b82525050565b600061164c8383611631565b60208301905092915050565b6000602082019050919050565b6000611670826115d3565b61167a81856115de565b9350611685836115ef565b8060005b838110156116b657815161169d8882611640565b97506116a883611658565b925050600181019050611689565b5085935050505092915050565b600081519050919050565b600082825260208201905092915050565b6000819050602082019050919050565b600082825260208201905092915050565b600061170b82611545565b61171581856116ef565b9350611725818560208601611561565b61172e81611377565b840191505092915050565b60006117458383611700565b905092915050565b6000602082019050919050565b6000611765826116c3565b61176f81856116ce565b935083602082028501611781856116df565b8060005b858110156117bd578484038952815161179e8582611739565b94506117a98361174d565b925060208a01995050600181019050611785565b50829750879550505050505092915050565b600060808201905081810360008301526117e9818761158b565b90506117f860208301866115c4565b818103604083015261180a8185611665565b9050818103606083015261181e818461175a565b905095945050505050565b60006040820190508181036000830152611843818561175a565b90508181036020830152611857818461175a565b90509392505050565b600081519050919050565b600082825260208201905092915050565b6000819050602082019050919050565b611895816114b3565b82525050565b60006118a7838361188c565b60208301905092915050565b6000602082019050919050565b60006118cb82611860565b6118d5818561186b565b93506118e08361187c565b8060005b838110156119115781516118f8888261189b565b9750611903836118b3565b9250506001810190506118e4565b5085935050505092915050565b60006080820190508181036000830152611938818761175a565b9050818103602083015261194c81866118c0565b90508181036040830152611960818561175a565b905081810360608301526119748184611665565b905095945050505050565b60006080820190508181036000830152611999818761158b565b90506119a860208301866115c4565b81810360408301526119ba8185611665565b905081810360608301526119ce818461158b565b905095945050505050565b6000806000606084860312156119f2576119f1611363565b5b600084013567ffffffffffffffff811115611a1057611a0f611368565b5b611a1c86828701611485565b9350506020611a2d868287016114d4565b925050604084013567ffffffffffffffff811115611a4e57611a4d611368565b5b611a5a86828701611485565b9150509250925092565b60008060408385031215611a7b57611a7a611363565b5b600083013567ffffffffffffffff811115611a9957611a98611368565b5b611aa585828601611485565b925050602083013567ffffffffffffffff811115611ac657611ac5611368565b5b611ad285828601611485565b9150509250929050565b7f4e487b7100000000000000000000000000000000000000000000000000000000600052602260045260246000fd5b60006002820490506001821680611b2357607f821691505b602082108103611b3657611b35611adc565b5b50919050565b60008190508160005260206000209050919050565b60006020601f8301049050919050565b600082821b905092915050565b600060088302611b9e7fffffffffffffffffffffffffffffffffffffffffffffffffffffffffffffffff82611b61565b611ba88683611b61565b95508019841693508086168417925050509392505050565b6000819050919050565b6000611be5611be0611bdb846114b3565b611bc0565b6114b3565b9050919050565b6000819050919050565b611bff83611bca565b611c13611c0b82611bec565b848454611b6e565b825550505050565b600090565b611c28611c1b565b611c33818484611bf6565b505050565b5b81811015611c5757611c4c600082611c20565b600181019050611c39565b5050565b601f821115611c9c57611c6d81611b3c565b611c7684611b51565b81016020851015611c85578190505b611c99611c9185611b51565b830182611c38565b50505b505050565b600082821c905092915050565b6000611cbf60001984600802611ca1565b1980831691505092915050565b6000611cd88383611cae565b9150826002028217905092915050565b611cf182611545565b67ffffffffffffffff811115611d0a57611d09611388565b5b611d148254611b0b565b611d1f828285611c5b565b600060209050601f831160018114611d525760008415611d40578287015190505b611d4a8582611ccc565b865550611db2565b601f198416611d6086611b3c565b60005b82811015611d8857848901518255600182019150602085019450602081019050611d63565b86831015611da55784890151611da1601f891682611cae565b8355505b6001600288020188555050505b505050505050565b7f4e487b7100000000000000000000000000000000000000000000000000000000600052603260045260246000fd5b600081905092915050565b60008154611e0181611b0b565b611e0b8186611de9565b94506001821660008114611e265760018114611e3b57611e6e565b60ff1983168652811515820286019350611e6e565b611e4485611b3c565b60005b83811015611e6657815481890152600182019150602081019050611e47565b838801955050505b50505092915050565b6000611e838284611df4565b915081905092915050565b7f4e487b7100000000000000000000000000000000000000000000000000000000600052601160045260246000fd5b6000611ec8826114b3565b91507fffffffffffffffffffffffffffffffffffffffffffffffffffffffffffffffff8203611efa57611ef9611e8e565b5b600182019050919050565b6000611f1082611545565b611f1a8185611de9565b9350611f2a818560208601611561565b80840191505092915050565b6000611f428284611f05565b91508190509291505056fea2646970667358221220800e8a761dc156a6c6a9babc8487f155eeb21e377ace13a1d9ae67306473b21064736f6c63430008130033",
  "immutableReferences": {},
  "source": "// SPDX-License-Identifier: UNLICENSED\r\npragma solidity >=0.4.16 <0.9.0;\r\n\r\ncontract Account{\r\n    \r\n    constructor(){\r\n        setPatientInfo(\"\",0,false);\r\n        setDoctorInfo(\"\",0,false);\r\n    }\r\n    struct patient{\r\n        string name;\r\n        uint age;\r\n        bool created;\r\n        address[] concernDoctor;\r\n        string[] dataHash;\r\n    }\r\n\r\n\r\n\r\n    struct doctor{\r\n        string name;\r\n        uint age;\r\n        bool created;\r\n        string description;\r\n        address[] concernPatient;\r\n    }\r\n\r\n    struct data {\r\n\r\n        string enc_hash;\r\n        string description;\r\n        address owner;\r\n        \r\n    }\r\n\r\n\r\n    mapping(address => patient) patientInfo;\r\n    mapping(address => doctor) doctorInfo;\r\n    mapping(string => data) dataInfo;\r\n\r\n    address[] doctorList;\r\n\r\n    function getPatientInfo() public view returns (string memory, uint, address[] memory, string[] memory){\r\n        \r\n        address owner = msg.sender;\r\n        \r\n        return (patientInfo[owner].name,patientInfo[owner].age,patientInfo[owner].concernDoctor,patientInfo[owner].dataHash);\r\n    }\r\n\r\n    function setPatientInfo(string memory _name,uint _age, bool _created) internal{\r\n        \r\n        patient memory tempPatient;\r\n        tempPatient.name = _name;\r\n        tempPatient.age = _age;\r\n        tempPatient.created = _created;\r\n        patientInfo[msg.sender] = tempPatient;\r\n    }\r\n\r\n    function editPatientInfo(string memory _name,uint _age) public{\r\n        address owner = msg.sender;\r\n        patientInfo[owner].name = _name;\r\n        patientInfo[owner].age = _age;\r\n        patientInfo[owner].created = true;\r\n       \r\n    }\r\n\r\n    function getDoctorInfo() public view returns (string memory, uint, address[] memory,string memory){\r\n        \r\n        address owner = msg.sender;\r\n        \r\n        return (doctorInfo[owner].name,doctorInfo[owner].age,doctorInfo[owner].concernPatient,doctorInfo[owner].description);\r\n    }\r\n\r\n    function setDoctorInfo(string memory _name,uint _age, bool _created) internal{\r\n        \r\n        doctor memory tempDoctor;\r\n        tempDoctor.name = _name;\r\n        tempDoctor.age = _age;\r\n        tempDoctor.created = _created;\r\n        doctorInfo[msg.sender] = tempDoctor;\r\n    }\r\n\r\n    function editDoctorInfo(string memory _name,uint _age, string memory _description) public{\r\n        address owner = msg.sender;\r\n        doctorInfo[owner].name = _name;\r\n        doctorInfo[owner].age = _age;\r\n        doctorInfo[owner].created = true;\r\n        doctorInfo[owner].description = _description;\r\n        doctorList.push(owner);\r\n    }\r\n    \r\n     function add_records(string memory _hash, string memory _description) public {\r\n        \r\n        address _owner = msg.sender;\r\n\r\n        data memory d;\r\n        d.enc_hash = _hash;\r\n        d.description = _description;\r\n        d.owner = _owner;\r\n        dataInfo[d.enc_hash] = d;\r\n\r\n        patientInfo[_owner].dataHash.push(d.enc_hash);\r\n        // return _id;\r\n    }\r\n\r\n    function getDoctors() public view returns (string[] memory,uint[] memory,string[] memory,address[] memory){\r\n        uint n = doctorList.length;\r\n        string[] memory _name = new string[](n);\r\n        uint[] memory _age = new uint[](n);\r\n        string[] memory _description= new string[](n);\r\n        address[] memory _address = new address[](n);\r\n\r\n        for(uint i=0;i<n;i++){\r\n            doctor memory tempDoctor = doctorInfo[doctorList[i]];\r\n            if(tempDoctor.created){\r\n                _name[i] = tempDoctor.name;\r\n                _age[i] = tempDoctor.age;\r\n                _description[i] = tempDoctor.description;\r\n                _address[i] = doctorList[i];\r\n\r\n            }\r\n\r\n        }\r\n        return (_name,_age,_description,_address);\r\n    }\r\n\r\n    function getRecords() public view returns (string[] memory,string[] memory){\r\n        uint n = patientInfo[msg.sender].dataHash.length;\r\n        string[] memory _des = new string[](n);\r\n        for(uint i;i<n;i++){\r\n            _des[i] = dataInfo[patientInfo[msg.sender].dataHash[i]].description;\r\n        }\r\n        return (patientInfo[msg.sender].dataHash,_des);\r\n    }\r\n}",
  "sourcePath": "C:\\Users\\amand\\Desktop\\hackathon\\client\\contracts\\Account.sol",
  "compiler": {
    "name": "solc",
    "version": "0.8.19+commit.7dd6d404.Emscripten.clang"
  },
  "schemaVersion": "3.4.13",
  "updatedAt": "2023-03-18T13:19:07.976Z",
  "devdoc": {
    "kind": "dev",
    "methods": {},
    "version": 1
  },
  "userdoc": {
    "kind": "user",
    "methods": {},
    "version": 1
  }
}