{
  "contractName": "Account",
  "abi": [
    {
      "inputs": [],
      "stateMutability": "nonpayable",
      "type": "constructor"
    },
    {
      "inputs": [],
      "name": "getPatientInfo",
      "outputs": [
        {
          "internalType": "string",
          "name": "",
          "type": "string"
        },
        {
          "internalType": "uint256",
          "name": "",
          "type": "uint256"
        },
        {
          "internalType": "address[]",
          "name": "",
          "type": "address[]"
        },
        {
          "internalType": "string[]",
          "name": "",
          "type": "string[]"
        }
      ],
      "stateMutability": "view",
      "type": "function"
    },
    {
      "inputs": [
        {
          "internalType": "string",
          "name": "_name",
          "type": "string"
        },
        {
          "internalType": "uint256",
          "name": "_age",
          "type": "uint256"
        }
      ],
      "name": "editPatientInfo",
      "outputs": [],
      "stateMutability": "nonpayable",
      "type": "function"
    },
    {
      "inputs": [],
      "name": "getDoctorInfo",
      "outputs": [
        {
          "internalType": "string",
          "name": "",
          "type": "string"
        },
        {
          "internalType": "uint256",
          "name": "",
          "type": "uint256"
        },
        {
          "internalType": "string",
          "name": "",
          "type": "string"
        }
      ],
      "stateMutability": "view",
      "type": "function"
    },
    {
      "inputs": [
        {
          "internalType": "string",
          "name": "_name",
          "type": "string"
        },
        {
          "internalType": "uint256",
          "name": "_age",
          "type": "uint256"
        },
        {
          "internalType": "string",
          "name": "_description",
          "type": "string"
        }
      ],
      "name": "editDoctorInfo",
      "outputs": [],
      "stateMutability": "nonpayable",
      "type": "function"
    },
    {
      "inputs": [
        {
          "internalType": "string",
          "name": "_name",
          "type": "string"
        },
        {
          "internalType": "string",
          "name": "_hash",
          "type": "string"
        },
        {
          "internalType": "string",
          "name": "_description",
          "type": "string"
        }
      ],
      "name": "add_records",
      "outputs": [],
      "stateMutability": "nonpayable",
      "type": "function"
    },
    {
      "inputs": [],
      "name": "getDoctors",
      "outputs": [
        {
          "internalType": "string[]",
          "name": "",
          "type": "string[]"
        },
        {
          "internalType": "uint256[]",
          "name": "",
          "type": "uint256[]"
        },
        {
          "internalType": "string[]",
          "name": "",
          "type": "string[]"
        },
        {
          "internalType": "address[]",
          "name": "",
          "type": "address[]"
        }
      ],
      "stateMutability": "view",
      "type": "function"
    },
    {
      "inputs": [],
      "name": "getRecords",
      "outputs": [
        {
          "internalType": "string[]",
          "name": "",
          "type": "string[]"
        },
        {
          "internalType": "string[]",
          "name": "",
          "type": "string[]"
        },
        {
          "internalType": "string[]",
          "name": "",
          "type": "string[]"
        }
      ],
      "stateMutability": "view",
      "type": "function"
    },
    {
      "inputs": [
        {
          "internalType": "address",
          "name": "_to",
          "type": "address"
        },
        {
          "internalType": "string",
          "name": "_record_hash",
          "type": "string"
        }
      ],
      "name": "sendRecord",
      "outputs": [],
      "stateMutability": "nonpayable",
      "type": "function"
    },
    {
      "inputs": [],
      "name": "getDoctorsRequestedData",
      "outputs": [
        {
          "internalType": "string[]",
          "name": "",
          "type": "string[]"
        },
        {
          "internalType": "string[]",
          "name": "",
          "type": "string[]"
        },
        {
          "internalType": "bool[]",
          "name": "",
          "type": "bool[]"
        },
        {
          "internalType": "address[]",
          "name": "",
          "type": "address[]"
        },
        {
          "internalType": "string[]",
          "name": "",
          "type": "string[]"
        },
        {
          "internalType": "uint256[]",
          "name": "",
          "type": "uint256[]"
        }
      ],
      "stateMutability": "view",
      "type": "function"
    }
  ],
  "bytecode": "0x60806040523480156200001157600080fd5b5062000035604051806020016040528060008152506000806200005e60201b60201c565b62000058604051806020016040528060008152506000806200015360201b60201c565b62000781565b6200006862000242565b8381600001819052508281602001818152505081816040019015159081151581525050806000803373ffffffffffffffffffffffffffffffffffffffff1673ffffffffffffffffffffffffffffffffffffffff1681526020019081526020016000206000820151816000019081620000e191906200069a565b506020820151816001015560408201518160020160006101000a81548160ff02191690831515021790555060608201518160030190805190602001906200012a92919062000273565b5060808201518160040190805190602001906200014992919062000302565b5090505050505050565b6200015d62000362565b838160000181905250828160200181815250508181604001901515908115158152505080600160003373ffffffffffffffffffffffffffffffffffffffff1673ffffffffffffffffffffffffffffffffffffffff1681526020019081526020016000206000820151816000019081620001d791906200069a565b506020820151816001015560408201518160020160006101000a81548160ff02191690831515021790555060608201518160030190816200021991906200069a565b5060808201518160040190805190602001906200023892919062000302565b5090505050505050565b6040518060a00160405280606081526020016000815260200160001515815260200160608152602001606081525090565b828054828255906000526020600020908101928215620002ef579160200282015b82811115620002ee5782518260006101000a81548173ffffffffffffffffffffffffffffffffffffffff021916908373ffffffffffffffffffffffffffffffffffffffff1602179055509160200191906001019062000294565b5b509050620002fe919062000393565b5090565b8280548282559060005260206000209081019282156200034f579160200282015b828111156200034e5782518290816200033d91906200069a565b509160200191906001019062000323565b5b5090506200035e9190620003b2565b5090565b6040518060a00160405280606081526020016000815260200160001515815260200160608152602001606081525090565b5b80821115620003ae57600081600090555060010162000394565b5090565b5b80821115620003d65760008181620003cc9190620003da565b50600101620003b3565b5090565b508054620003e89062000489565b6000825580601f10620003fc57506200041d565b601f0160209004906000526020600020908101906200041c919062000393565b5b50565b600081519050919050565b7f4e487b7100000000000000000000000000000000000000000000000000000000600052604160045260246000fd5b7f4e487b7100000000000000000000000000000000000000000000000000000000600052602260045260246000fd5b60006002820490506001821680620004a257607f821691505b602082108103620004b857620004b76200045a565b5b50919050565b60008190508160005260206000209050919050565b60006020601f8301049050919050565b600082821b905092915050565b600060088302620005227fffffffffffffffffffffffffffffffffffffffffffffffffffffffffffffffff82620004e3565b6200052e8683620004e3565b95508019841693508086168417925050509392505050565b6000819050919050565b6000819050919050565b60006200057b620005756200056f8462000546565b62000550565b62000546565b9050919050565b6000819050919050565b62000597836200055a565b620005af620005a68262000582565b848454620004f0565b825550505050565b600090565b620005c6620005b7565b620005d38184846200058c565b505050565b5b81811015620005fb57620005ef600082620005bc565b600181019050620005d9565b5050565b601f8211156200064a576200061481620004be565b6200061f84620004d3565b810160208510156200062f578190505b620006476200063e85620004d3565b830182620005d8565b50505b505050565b600082821c905092915050565b60006200066f600019846008026200064f565b1980831691505092915050565b60006200068a83836200065c565b9150826002028217905092915050565b620006a58262000420565b67ffffffffffffffff811115620006c157620006c06200042b565b5b620006cd825462000489565b620006da828285620005ff565b600060209050601f831160018114620007125760008415620006fd578287015190505b6200070985826200067c565b86555062000779565b601f1984166200072286620004be565b60005b828110156200074c5784890151825560018201915060208501945060208101905062000725565b868310156200076c578489015162000768601f8916826200065c565b8355505b6001600288020188555050505b505050505050565b612b6280620007916000396000f3fe608060405234801561001057600080fd5b50600436106100935760003560e01c8063a77cd2a511610066578063a77cd2a514610111578063b13d5d9414610134578063b380f5c614610155578063d3c3dfcd14610175578063f25589b01461019157610093565b8063106c71a91461009857806320534a7c146100b4578063326df664146100d05780638eff3c29146100f1575b600080fd5b6100b260048036038101906100ad9190611ee4565b6101ad565b005b6100ce60048036038101906100c99190611f76565b610320565b005b6100d8610419565b6040516100e8949392919061222a565b60405180910390f35b6100f9610720565b60405161010893929190612284565b60405180910390f35b610119610b94565b60405161012b96959493929190612458565b60405180910390f35b61013c61124e565b60405161014c94939291906124e3565b60405180910390f35b61015d611782565b60405161016c93929190612544565b60405180910390f35b61018f600480360381019061018a9190612589565b611978565b005b6101ab60048036038101906101a69190612614565b611b27565b005b6101b5611cb5565b818160000181905250600081602001901515908115158152505033816040019073ffffffffffffffffffffffffffffffffffffffff16908173ffffffffffffffffffffffffffffffffffffffff16815250508060038360405161021891906126f7565b9081526020016040518091039020600082015181600001908161023b919061291a565b5060208201518160010160006101000a81548160ff02191690831515021790555060408201518160010160016101000a81548173ffffffffffffffffffffffffffffffffffffffff021916908373ffffffffffffffffffffffffffffffffffffffff160217905550905050600160008473ffffffffffffffffffffffffffffffffffffffff1673ffffffffffffffffffffffffffffffffffffffff1681526020019081526020016000206004018290806001815401808255809150506001900390600052602060002001600090919091909150908161031a919061291a565b50505050565b6000339050826000808373ffffffffffffffffffffffffffffffffffffffff1673ffffffffffffffffffffffffffffffffffffffff1681526020019081526020016000206000019081610373919061291a565b50816000808373ffffffffffffffffffffffffffffffffffffffff1673ffffffffffffffffffffffffffffffffffffffff1681526020019081526020016000206001018190555060016000808373ffffffffffffffffffffffffffffffffffffffff1673ffffffffffffffffffffffffffffffffffffffff16815260200190815260200160002060020160006101000a81548160ff021916908315150217905550505050565b6060600060608060003390506000808273ffffffffffffffffffffffffffffffffffffffff1673ffffffffffffffffffffffffffffffffffffffff1681526020019081526020016000206000016000808373ffffffffffffffffffffffffffffffffffffffff1673ffffffffffffffffffffffffffffffffffffffff168152602001908152602001600020600101546000808473ffffffffffffffffffffffffffffffffffffffff1673ffffffffffffffffffffffffffffffffffffffff1681526020019081526020016000206003016000808573ffffffffffffffffffffffffffffffffffffffff1673ffffffffffffffffffffffffffffffffffffffff1681526020019081526020016000206004018380546105369061273d565b80601f01602080910402602001604051908101604052809291908181526020018280546105629061273d565b80156105af5780601f10610584576101008083540402835291602001916105af565b820191906000526020600020905b81548152906001019060200180831161059257829003601f168201915b505050505093508180548060200260200160405190810160405280929190818152602001828054801561063757602002820191906000526020600020905b8160009054906101000a900473ffffffffffffffffffffffffffffffffffffffff1673ffffffffffffffffffffffffffffffffffffffff16815260200190600101908083116105ed575b5050505050915080805480602002602001604051908101604052809291908181526020016000905b8282101561070b57838290600052602060002001805461067e9061273d565b80601f01602080910402602001604051908101604052809291908181526020018280546106aa9061273d565b80156106f75780601f106106cc576101008083540402835291602001916106f7565b820191906000526020600020905b8154815290600101906020018083116106da57829003601f168201915b50505050508152602001906001019061065f565b50505050905094509450945094505090919293565b606080606060008060003373ffffffffffffffffffffffffffffffffffffffff1673ffffffffffffffffffffffffffffffffffffffff16815260200190815260200160002060040180549050905060008167ffffffffffffffff81111561078a57610789611db9565b5b6040519080825280602002602001820160405280156107bd57816020015b60608152602001906001900390816107a85790505b50905060008267ffffffffffffffff8111156107dc576107db611db9565b5b60405190808252806020026020018201604052801561080f57816020015b60608152602001906001900390816107fa5790505b50905060008367ffffffffffffffff81111561082e5761082d611db9565b5b60405190808252806020026020018201604052801561086157816020015b606081526020019060019003908161084c5790505b50905060005b84811015610b8157600060026000803373ffffffffffffffffffffffffffffffffffffffff1673ffffffffffffffffffffffffffffffffffffffff16815260200190815260200160002060040183815481106108c6576108c56129ec565b5b906000526020600020016040516108dd9190612a9e565b90815260200160405180910390206040518060800160405290816000820180546109069061273d565b80601f01602080910402602001604051908101604052809291908181526020018280546109329061273d565b801561097f5780601f106109545761010080835404028352916020019161097f565b820191906000526020600020905b81548152906001019060200180831161096257829003601f168201915b505050505081526020016001820180546109989061273d565b80601f01602080910402602001604051908101604052809291908181526020018280546109c49061273d565b8015610a115780601f106109e657610100808354040283529160200191610a11565b820191906000526020600020905b8154815290600101906020018083116109f457829003601f168201915b50505050508152602001600282018054610a2a9061273d565b80601f0160208091040260200160405190810160405280929190818152602001828054610a569061273d565b8015610aa35780601f10610a7857610100808354040283529160200191610aa3565b820191906000526020600020905b815481529060010190602001808311610a8657829003601f168201915b505050505081526020016003820160009054906101000a900473ffffffffffffffffffffffffffffffffffffffff1673ffffffffffffffffffffffffffffffffffffffff1673ffffffffffffffffffffffffffffffffffffffff168152505090508060400151838381518110610b1c57610b1b6129ec565b5b60200260200101819052508060000151858381518110610b3f57610b3e6129ec565b5b60200260200101819052508060200151848381518110610b6257610b616129ec565b5b6020026020010181905250508080610b7990612ae4565b915050610867565b5082828296509650965050505050909192565b6060806060806060806000600160003373ffffffffffffffffffffffffffffffffffffffff1673ffffffffffffffffffffffffffffffffffffffff16815260200190815260200160002060040180549050905060008167ffffffffffffffff811115610c0357610c02611db9565b5b604051908082528060200260200182016040528015610c3657816020015b6060815260200190600190039081610c215790505b50905060008267ffffffffffffffff811115610c5557610c54611db9565b5b604051908082528060200260200182016040528015610c8857816020015b6060815260200190600190039081610c735790505b50905060008367ffffffffffffffff811115610ca757610ca6611db9565b5b604051908082528060200260200182016040528015610cd55781602001602082028036833780820191505090505b50905060008467ffffffffffffffff811115610cf457610cf3611db9565b5b604051908082528060200260200182016040528015610d225781602001602082028036833780820191505090505b50905060008567ffffffffffffffff811115610d4157610d40611db9565b5b604051908082528060200260200182016040528015610d7457816020015b6060815260200190600190039081610d5f5790505b50905060008667ffffffffffffffff811115610d9357610d92611db9565b5b604051908082528060200260200182016040528015610dc15781602001602082028036833780820191505090505b50905060005b8781101561122c5760006003600160003373ffffffffffffffffffffffffffffffffffffffff1673ffffffffffffffffffffffffffffffffffffffff1681526020019081526020016000206004018381548110610e2757610e266129ec565b5b90600052602060002001604051610e3e9190612a9e565b9081526020016040518091039020604051806060016040529081600082018054610e679061273d565b80601f0160208091040260200160405190810160405280929190818152602001828054610e939061273d565b8015610ee05780601f10610eb557610100808354040283529160200191610ee0565b820191906000526020600020905b815481529060010190602001808311610ec357829003601f168201915b505050505081526020016001820160009054906101000a900460ff161515151581526020016001820160019054906101000a900473ffffffffffffffffffffffffffffffffffffffff1673ffffffffffffffffffffffffffffffffffffffff1673ffffffffffffffffffffffffffffffffffffffff1681525050905060028160000151604051610f7091906126f7565b90815260200160405180910390206000018054610f8c9061273d565b80601f0160208091040260200160405190810160405280929190818152602001828054610fb89061273d565b80156110055780601f10610fda57610100808354040283529160200191611005565b820191906000526020600020905b815481529060010190602001808311610fe857829003601f168201915b505050505088838151811061101d5761101c6129ec565b5b602002602001018190525080600001518783815181106110405761103f6129ec565b5b60200260200101819052508060200151868381518110611063576110626129ec565b5b602002602001019015159081151581525050806040015185838151811061108d5761108c6129ec565b5b602002602001019073ffffffffffffffffffffffffffffffffffffffff16908173ffffffffffffffffffffffffffffffffffffffff1681525050600080826040015173ffffffffffffffffffffffffffffffffffffffff1673ffffffffffffffffffffffffffffffffffffffff16815260200190815260200160002060000180546111179061273d565b80601f01602080910402602001604051908101604052809291908181526020018280546111439061273d565b80156111905780601f1061116557610100808354040283529160200191611190565b820191906000526020600020905b81548152906001019060200180831161117357829003601f168201915b50505050508483815181106111a8576111a76129ec565b5b6020026020010181905250600080826040015173ffffffffffffffffffffffffffffffffffffffff1673ffffffffffffffffffffffffffffffffffffffff1681526020019081526020016000206001015483838151811061120c5761120b6129ec565b5b60200260200101818152505050808061122490612ae4565b915050610dc7565b508585858585859c509c509c509c509c509c5050505050505050909192939495565b6060806060806000600480549050905060008167ffffffffffffffff81111561127a57611279611db9565b5b6040519080825280602002602001820160405280156112ad57816020015b60608152602001906001900390816112985790505b50905060008267ffffffffffffffff8111156112cc576112cb611db9565b5b6040519080825280602002602001820160405280156112fa5781602001602082028036833780820191505090505b50905060008367ffffffffffffffff81111561131957611318611db9565b5b60405190808252806020026020018201604052801561134c57816020015b60608152602001906001900390816113375790505b50905060008467ffffffffffffffff81111561136b5761136a611db9565b5b6040519080825280602002602001820160405280156113995781602001602082028036833780820191505090505b50905060005b8581101561176a57600060016000600484815481106113c1576113c06129ec565b5b9060005260206000200160009054906101000a900473ffffffffffffffffffffffffffffffffffffffff1673ffffffffffffffffffffffffffffffffffffffff1673ffffffffffffffffffffffffffffffffffffffff1681526020019081526020016000206040518060a00160405290816000820180546114419061273d565b80601f016020809104026020016040519081016040528092919081815260200182805461146d9061273d565b80156114ba5780601f1061148f576101008083540402835291602001916114ba565b820191906000526020600020905b81548152906001019060200180831161149d57829003601f168201915b50505050508152602001600182015481526020016002820160009054906101000a900460ff161515151581526020016003820180546114f89061273d565b80601f01602080910402602001604051908101604052809291908181526020018280546115249061273d565b80156115715780601f1061154657610100808354040283529160200191611571565b820191906000526020600020905b81548152906001019060200180831161155457829003601f168201915b5050505050815260200160048201805480602002602001604051908101604052809291908181526020016000905b8282101561164b5783829060005260206000200180546115be9061273d565b80601f01602080910402602001604051908101604052809291908181526020018280546115ea9061273d565b80156116375780601f1061160c57610100808354040283529160200191611637565b820191906000526020600020905b81548152906001019060200180831161161a57829003601f168201915b50505050508152602001906001019061159f565b50505050815250509050806040015115611756578060000151868381518110611677576116766129ec565b5b6020026020010181905250806020015185838151811061169a576116996129ec565b5b60200260200101818152505080606001518483815181106116be576116bd6129ec565b5b6020026020010181905250600482815481106116dd576116dc6129ec565b5b9060005260206000200160009054906101000a900473ffffffffffffffffffffffffffffffffffffffff1683838151811061171b5761171a6129ec565b5b602002602001019073ffffffffffffffffffffffffffffffffffffffff16908173ffffffffffffffffffffffffffffffffffffffff16815250505b50808061176290612ae4565b91505061139f565b50838383839850985098509850505050505090919293565b6060600060606000339050600160008273ffffffffffffffffffffffffffffffffffffffff1673ffffffffffffffffffffffffffffffffffffffff168152602001908152602001600020600001600160008373ffffffffffffffffffffffffffffffffffffffff1673ffffffffffffffffffffffffffffffffffffffff16815260200190815260200160002060010154600160008473ffffffffffffffffffffffffffffffffffffffff1673ffffffffffffffffffffffffffffffffffffffff1681526020019081526020016000206003018280546118609061273d565b80601f016020809104026020016040519081016040528092919081815260200182805461188c9061273d565b80156118d95780601f106118ae576101008083540402835291602001916118d9565b820191906000526020600020905b8154815290600101906020018083116118bc57829003601f168201915b505050505092508080546118ec9061273d565b80601f01602080910402602001604051908101604052809291908181526020018280546119189061273d565b80156119655780601f1061193a57610100808354040283529160200191611965565b820191906000526020600020905b81548152906001019060200180831161194857829003601f168201915b5050505050905093509350935050909192565b600033905083600160008373ffffffffffffffffffffffffffffffffffffffff1673ffffffffffffffffffffffffffffffffffffffff16815260200190815260200160002060000190816119cc919061291a565b5082600160008373ffffffffffffffffffffffffffffffffffffffff1673ffffffffffffffffffffffffffffffffffffffff1681526020019081526020016000206001018190555060018060008373ffffffffffffffffffffffffffffffffffffffff1673ffffffffffffffffffffffffffffffffffffffff16815260200190815260200160002060020160006101000a81548160ff02191690831515021790555081600160008373ffffffffffffffffffffffffffffffffffffffff1673ffffffffffffffffffffffffffffffffffffffff1681526020019081526020016000206003019081611abd919061291a565b506004819080600181540180825580915050600190039060005260206000200160009091909190916101000a81548173ffffffffffffffffffffffffffffffffffffffff021916908373ffffffffffffffffffffffffffffffffffffffff16021790555050505050565b6000339050611b34611cee565b84816000018190525083816020018190525082816040018190525081816060019073ffffffffffffffffffffffffffffffffffffffff16908173ffffffffffffffffffffffffffffffffffffffff16815250508060028260200151604051611b9c91906126f7565b90815260200160405180910390206000820151816000019081611bbf919061291a565b506020820151816001019081611bd5919061291a565b506040820151816002019081611beb919061291a565b5060608201518160030160006101000a81548173ffffffffffffffffffffffffffffffffffffffff021916908373ffffffffffffffffffffffffffffffffffffffff1602179055509050506000808373ffffffffffffffffffffffffffffffffffffffff1673ffffffffffffffffffffffffffffffffffffffff1681526020019081526020016000206004018160200151908060018154018082558091505060019003906000526020600020016000909190919091509081611cad919061291a565b505050505050565b604051806060016040528060608152602001600015158152602001600073ffffffffffffffffffffffffffffffffffffffff1681525090565b6040518060800160405280606081526020016060815260200160608152602001600073ffffffffffffffffffffffffffffffffffffffff1681525090565b6000604051905090565b600080fd5b600080fd5b600073ffffffffffffffffffffffffffffffffffffffff82169050919050565b6000611d6b82611d40565b9050919050565b611d7b81611d60565b8114611d8657600080fd5b50565b600081359050611d9881611d72565b92915050565b600080fd5b600080fd5b6000601f19601f8301169050919050565b7f4e487b7100000000000000000000000000000000000000000000000000000000600052604160045260246000fd5b611df182611da8565b810181811067ffffffffffffffff82111715611e1057611e0f611db9565b5b80604052505050565b6000611e23611d2c565b9050611e2f8282611de8565b919050565b600067ffffffffffffffff821115611e4f57611e4e611db9565b5b611e5882611da8565b9050602081019050919050565b82818337600083830152505050565b6000611e87611e8284611e34565b611e19565b905082815260208101848484011115611ea357611ea2611da3565b5b611eae848285611e65565b509392505050565b600082601f830112611ecb57611eca611d9e565b5b8135611edb848260208601611e74565b91505092915050565b60008060408385031215611efb57611efa611d36565b5b6000611f0985828601611d89565b925050602083013567ffffffffffffffff811115611f2a57611f29611d3b565b5b611f3685828601611eb6565b9150509250929050565b6000819050919050565b611f5381611f40565b8114611f5e57600080fd5b50565b600081359050611f7081611f4a565b92915050565b60008060408385031215611f8d57611f8c611d36565b5b600083013567ffffffffffffffff811115611fab57611faa611d3b565b5b611fb785828601611eb6565b9250506020611fc885828601611f61565b9150509250929050565b600081519050919050565b600082825260208201905092915050565b60005b8381101561200c578082015181840152602081019050611ff1565b60008484015250505050565b600061202382611fd2565b61202d8185611fdd565b935061203d818560208601611fee565b61204681611da8565b840191505092915050565b61205a81611f40565b82525050565b600081519050919050565b600082825260208201905092915050565b6000819050602082019050919050565b61209581611d60565b82525050565b60006120a7838361208c565b60208301905092915050565b6000602082019050919050565b60006120cb82612060565b6120d5818561206b565b93506120e08361207c565b8060005b838110156121115781516120f8888261209b565b9750612103836120b3565b9250506001810190506120e4565b5085935050505092915050565b600081519050919050565b600082825260208201905092915050565b6000819050602082019050919050565b600082825260208201905092915050565b600061216682611fd2565b612170818561214a565b9350612180818560208601611fee565b61218981611da8565b840191505092915050565b60006121a0838361215b565b905092915050565b6000602082019050919050565b60006121c08261211e565b6121ca8185612129565b9350836020820285016121dc8561213a565b8060005b8581101561221857848403895281516121f98582612194565b9450612204836121a8565b925060208a019950506001810190506121e0565b50829750879550505050505092915050565b600060808201905081810360008301526122448187612018565b90506122536020830186612051565b818103604083015261226581856120c0565b9050818103606083015261227981846121b5565b905095945050505050565b6000606082019050818103600083015261229e81866121b5565b905081810360208301526122b281856121b5565b905081810360408301526122c681846121b5565b9050949350505050565b600081519050919050565b600082825260208201905092915050565b6000819050602082019050919050565b60008115159050919050565b612311816122fc565b82525050565b60006123238383612308565b60208301905092915050565b6000602082019050919050565b6000612347826122d0565b61235181856122db565b935061235c836122ec565b8060005b8381101561238d5781516123748882612317565b975061237f8361232f565b925050600181019050612360565b5085935050505092915050565b600081519050919050565b600082825260208201905092915050565b6000819050602082019050919050565b6123cf81611f40565b82525050565b60006123e183836123c6565b60208301905092915050565b6000602082019050919050565b60006124058261239a565b61240f81856123a5565b935061241a836123b6565b8060005b8381101561244b57815161243288826123d5565b975061243d836123ed565b92505060018101905061241e565b5085935050505092915050565b600060c082019050818103600083015261247281896121b5565b9050818103602083015261248681886121b5565b9050818103604083015261249a818761233c565b905081810360608301526124ae81866120c0565b905081810360808301526124c281856121b5565b905081810360a08301526124d681846123fa565b9050979650505050505050565b600060808201905081810360008301526124fd81876121b5565b9050818103602083015261251181866123fa565b9050818103604083015261252581856121b5565b9050818103606083015261253981846120c0565b905095945050505050565b6000606082019050818103600083015261255e8186612018565b905061256d6020830185612051565b818103604083015261257f8184612018565b9050949350505050565b6000806000606084860312156125a2576125a1611d36565b5b600084013567ffffffffffffffff8111156125c0576125bf611d3b565b5b6125cc86828701611eb6565b93505060206125dd86828701611f61565b925050604084013567ffffffffffffffff8111156125fe576125fd611d3b565b5b61260a86828701611eb6565b9150509250925092565b60008060006060848603121561262d5761262c611d36565b5b600084013567ffffffffffffffff81111561264b5761264a611d3b565b5b61265786828701611eb6565b935050602084013567ffffffffffffffff81111561267857612677611d3b565b5b61268486828701611eb6565b925050604084013567ffffffffffffffff8111156126a5576126a4611d3b565b5b6126b186828701611eb6565b9150509250925092565b600081905092915050565b60006126d182611fd2565b6126db81856126bb565b93506126eb818560208601611fee565b80840191505092915050565b600061270382846126c6565b915081905092915050565b7f4e487b7100000000000000000000000000000000000000000000000000000000600052602260045260246000fd5b6000600282049050600182168061275557607f821691505b6020821081036127685761276761270e565b5b50919050565b60008190508160005260206000209050919050565b60006020601f8301049050919050565b600082821b905092915050565b6000600883026127d07fffffffffffffffffffffffffffffffffffffffffffffffffffffffffffffffff82612793565b6127da8683612793565b95508019841693508086168417925050509392505050565b6000819050919050565b600061281761281261280d84611f40565b6127f2565b611f40565b9050919050565b6000819050919050565b612831836127fc565b61284561283d8261281e565b8484546127a0565b825550505050565b600090565b61285a61284d565b612865818484612828565b505050565b5b818110156128895761287e600082612852565b60018101905061286b565b5050565b601f8211156128ce5761289f8161276e565b6128a884612783565b810160208510156128b7578190505b6128cb6128c385612783565b83018261286a565b50505b505050565b600082821c905092915050565b60006128f1600019846008026128d3565b1980831691505092915050565b600061290a83836128e0565b9150826002028217905092915050565b61292382611fd2565b67ffffffffffffffff81111561293c5761293b611db9565b5b612946825461273d565b61295182828561288d565b600060209050601f8311600181146129845760008415612972578287015190505b61297c85826128fe565b8655506129e4565b601f1984166129928661276e565b60005b828110156129ba57848901518255600182019150602085019450602081019050612995565b868310156129d757848901516129d3601f8916826128e0565b8355505b6001600288020188555050505b505050505050565b7f4e487b7100000000000000000000000000000000000000000000000000000000600052603260045260246000fd5b60008154612a288161273d565b612a3281866126bb565b94506001821660008114612a4d5760018114612a6257612a95565b60ff1983168652811515820286019350612a95565b612a6b8561276e565b60005b83811015612a8d57815481890152600182019150602081019050612a6e565b838801955050505b50505092915050565b6000612aaa8284612a1b565b915081905092915050565b7f4e487b7100000000000000000000000000000000000000000000000000000000600052601160045260246000fd5b6000612aef82611f40565b91507fffffffffffffffffffffffffffffffffffffffffffffffffffffffffffffffff8203612b2157612b20612ab5565b5b60018201905091905056fea2646970667358221220fde792575590885e1d10b47d023603b77c24b367d71321d37d72edceaa7f724464736f6c63430008130033",
  "immutableReferences": {},
  "source": "// SPDX-License-Identifier: GPL-3.0\r\npragma solidity >=0.4.16 <0.9.0;\r\n\r\ncontract Account{\r\n    \r\n    constructor(){\r\n        setPatientInfo(\"\",0,false);\r\n        setDoctorInfo(\"\",0,false);\r\n    }\r\n    struct patient{\r\n        string name;\r\n        uint age;\r\n        bool created;\r\n        address[] concernDoctor;\r\n        string[] dataHash;\r\n    }\r\n\r\n\r\n\r\n    struct doctor{\r\n        string name;\r\n        uint age;\r\n        bool created;\r\n        string description;\r\n        string[] requestedDataHash;\r\n      \r\n    }\r\n\r\n    struct data {\r\n        string dataName;\r\n        string enc_hash;\r\n        string description;\r\n        address owner;\r\n        \r\n    }\r\n\r\n    struct requestedData {\r\n        string dataHash;\r\n        bool isSeen;\r\n        address from;\r\n    }\r\n\r\n    mapping(address => patient) patientInfo;\r\n    mapping(address => doctor) doctorInfo;\r\n    mapping(string => data) dataInfo;\r\n    mapping(string => requestedData) requestedDataInfo;\r\n\r\n    address[] doctorList;\r\n\r\n    function getPatientInfo() public view returns (string memory, uint, address[] memory, string[] memory){\r\n        \r\n        address owner = msg.sender;\r\n        \r\n        return (patientInfo[owner].name,patientInfo[owner].age,patientInfo[owner].concernDoctor,patientInfo[owner].dataHash);\r\n    }\r\n\r\n    function setPatientInfo(string memory _name,uint _age, bool _created) internal{\r\n        patient memory tempPatient;\r\n        tempPatient.name=_name;\r\n        tempPatient.age=_age;\r\n        tempPatient.created=_created;\r\n    \r\n        patientInfo[msg.sender] = tempPatient;\r\n    }\r\n\r\n    function editPatientInfo(string memory _name,uint _age) public{\r\n        address owner = msg.sender;\r\n        patientInfo[owner].name = _name;\r\n        patientInfo[owner].age = _age;\r\n        patientInfo[owner].created = true;\r\n       \r\n    }\r\n\r\n    function getDoctorInfo() public view returns (string memory, uint,string memory){\r\n        \r\n        address owner = msg.sender;\r\n        \r\n        return (doctorInfo[owner].name,doctorInfo[owner].age,doctorInfo[owner].description);\r\n    }\r\n\r\n    function setDoctorInfo(string memory _name,uint _age, bool _created) internal{\r\n        \r\n        doctor memory tempDoctor;\r\n        tempDoctor.name = _name;\r\n        tempDoctor.age = _age;\r\n        tempDoctor.created = _created;\r\n        doctorInfo[msg.sender] = tempDoctor;\r\n    }\r\n\r\n    function editDoctorInfo(string memory _name,uint _age, string memory _description) public{\r\n        address owner = msg.sender;\r\n        doctorInfo[owner].name = _name;\r\n        doctorInfo[owner].age = _age;\r\n        doctorInfo[owner].created = true;\r\n        doctorInfo[owner].description = _description;\r\n        doctorList.push(owner);\r\n    }\r\n    \r\n     function add_records(string memory _name,string memory _hash, string memory _description) public {\r\n        \r\n        address _owner = msg.sender;\r\n\r\n        data memory d;\r\n        d.dataName = _name;\r\n        d.enc_hash = _hash;\r\n        d.description = _description;\r\n        d.owner = _owner;\r\n        dataInfo[d.enc_hash] = d;\r\n\r\n        patientInfo[_owner].dataHash.push(d.enc_hash);\r\n        // return _id;\r\n    }\r\n\r\n    function getDoctors() public view returns (string[] memory,uint[] memory,string[] memory,address[] memory){\r\n        uint n = doctorList.length;\r\n        string[] memory _name = new string[](n);\r\n        uint[] memory _age = new uint[](n);\r\n        string[] memory _description= new string[](n);\r\n        address[] memory _address = new address[](n);\r\n\r\n        for(uint i=0;i<n;i++){\r\n            doctor memory tempDoctor = doctorInfo[doctorList[i]];\r\n            if(tempDoctor.created){\r\n                _name[i] = tempDoctor.name;\r\n                _age[i] = tempDoctor.age;\r\n                _description[i] = tempDoctor.description;\r\n                _address[i] = doctorList[i];\r\n\r\n            }\r\n\r\n        }\r\n        return (_name,_age,_description,_address);\r\n    }\r\n\r\n    function getRecords() public view returns (string[] memory,string[] memory,string[] memory){\r\n        uint n = patientInfo[msg.sender].dataHash.length;\r\n        string[] memory _dataName = new string[](n);\r\n        string[] memory _hash = new string[](n);\r\n        string[] memory _des = new string[](n);\r\n        for(uint i;i<n;i++){\r\n            data memory tempData = dataInfo[patientInfo[msg.sender].dataHash[i]];\r\n            _des[i] = tempData.description;\r\n            _dataName[i] = tempData.dataName;\r\n            _hash[i] = tempData.enc_hash;\r\n        }\r\n        return (_dataName,_hash,_des);\r\n    }\r\n\r\n    function sendRecord(address _to,string memory _record_hash) public{\r\n        requestedData memory tempRequested;\r\n        tempRequested.dataHash = _record_hash;\r\n        tempRequested.isSeen = false;\r\n        tempRequested.from = msg.sender;\r\n        requestedDataInfo[_record_hash] = tempRequested;\r\n        doctorInfo[_to].requestedDataHash.push(_record_hash);\r\n    }\r\n\r\n    function getDoctorsRequestedData() public view returns (string[] memory,string[] memory, bool[] memory,address[] memory,string[] memory,uint[] memory){\r\n        uint n = doctorInfo[msg.sender].requestedDataHash.length;\r\n        string[] memory _dataName = new string[](n);\r\n        string[] memory _dataHash = new string[](n);\r\n        bool[] memory _isSeen = new bool[](n);\r\n        address[] memory _patient= new address[](n);\r\n        string[] memory _patientName = new string[](n);\r\n        uint[] memory _patientAge = new uint[](n);\r\n\r\n\r\n        for(uint i; i<n;i++){\r\n            requestedData memory tempReq = requestedDataInfo[doctorInfo[msg.sender].requestedDataHash[i]];\r\n            _dataName[i] = dataInfo[tempReq.dataHash].dataName;\r\n            _dataHash[i] = tempReq.dataHash;\r\n            _isSeen[i] = tempReq.isSeen;\r\n            _patient[i] = tempReq.from;\r\n            _patientName[i] =  patientInfo[tempReq.from].name;\r\n            _patientAge[i] = patientInfo[tempReq.from].age;\r\n        }\r\n\r\n        return (_dataName,_dataHash,_isSeen,_patient,_patientName,_patientAge);\r\n    }\r\n\r\n\r\n}",
  "sourcePath": "C:\\Users\\adnan\\OneDrive\\Desktop\\hackathon\\err-80085\\contracts\\Account.sol",
  "compiler": {
    "name": "solc",
    "version": "0.8.19+commit.7dd6d404.Emscripten.clang"
  },
  "schemaVersion": "3.4.13",
  "updatedAt": "2023-03-18T17:44:14.239Z",
  "devdoc": {
    "kind": "dev",
    "methods": {},
    "version": 1
  },
  "userdoc": {
    "kind": "user",
    "methods": {},
    "version": 1
  }
}